:10097600676F006261636B006C656674007269671D
:0809860068740073746F7000C7
:1009F200C101C100010E00010D0005084F4E41006A
:010A020000F3
:0A094C007F017E00120956120A48CE
:10095600E4FDFCC3ED9FEC9E5015E4FBFA0BBB00D7
:0F096600010ABA07F8BBD0F50DBD00010C80E403
:01097500225F
:10098E00E4FFEF90097693600AF5993099FDC299CC
:03099E000F80EFD8
:0109A1002233
:1009A200E4FFEF90097993600AF5993099FDC299B5
:0309B2000F80EFC4
:0109B500221F
:1009B600E4FFEF90097E93600AF5993099FDC2999C
:0309C6000F80EFB0
:0109C900220B
:1009CA00E4FFEF90098393600AF5993099FDC29983
:0309DA000F80EF9C
:0109DD0022F7
:1009DE00E4FFEF90098993600AF5993099FDC29969
:0309EE000F80EF88
:0109F10022E3
:100A0400D294C295C292D293D290C291D296C297F6
:010A140022BF
:100A1500C294D295D292C293C290D291C296D297E5
:010A250022AE
:100A2600C294D295D292C293D290C291D296C297D4
:010A3600229D
:100A3700D294C295C292D293C290D291C296D297C3
:010A4700228C
:100A4800C294C295C296C297C290C291C292C293F2
:010A5800227B
:03002300020906C9
:10090600C0E0C0D075D000C000309833C298859939
:100916000DE50DB44F0FE50E700B7408250EF8A605
:100926000DD200801A300017050E7408250EF8A6A1
:100936000DE50EC394024007750E00C200D201D029
:0609460000D0D0D0E03229
:10088C00758920758DFD758BFD759850E4F587D2B3
:10089C008ED2ACD2AF3001FDC201E508B44FF6E503
:1008AC0009B44EF1E50A24BE601C146027146032B2
:1008BC0024FE603D240570DD12098E120A04120913
:1008CC004C3001F780CF1209A2120A1512094C30D4
:1008DC0001F780C11209CA120A2612094C3001F71D
:1008EC0080B31209B6120A3712094C3001F702080C
:0A08FC00A11209DE120A480208A149
:03000000020800F3
:0C080000787FE4F6D8FD758120020847DF
:10080C0002088CE493A3F8E493A34003F68001F26E
:10081C0008DFF48029E493A3F85407240CC8C333ED
:10082C00C4540F4420C8834004F456800146F6DFBC
:10083C00E4800B01020408102040809009F2E47E51
:10084C00019360BCA3FF543F30E509541FFEE493B1
:10085C00A360010ECF54C025E060A840B8E493A378
:10086C00FAE493A3F8E493A3C8C582C8CAC583CAA3
:10087C00F0A3C8C582C8CAC583CADFE9DEE780BE5B
:010A030000F2
:00000001FF
